{
  "_format": "hh-sol-artifact-1",
  "contractName": "BMToken",
  "sourceName": "contracts/BMToken.sol",
  "abi": [
    {
      "inputs": [],
      "stateMutability": "nonpayable",
      "type": "constructor"
    },
    {
      "inputs": [
        {
          "internalType": "address",
          "name": "spender",
          "type": "address"
        },
        {
          "internalType": "uint256",
          "name": "allowance",
          "type": "uint256"
        },
        {
          "internalType": "uint256",
          "name": "needed",
          "type": "uint256"
        }
      ],
      "name": "ERC20InsufficientAllowance",
      "type": "error"
    },
    {
      "inputs": [
        {
          "internalType": "address",
          "name": "sender",
          "type": "address"
        },
        {
          "internalType": "uint256",
          "name": "balance",
          "type": "uint256"
        },
        {
          "internalType": "uint256",
          "name": "needed",
          "type": "uint256"
        }
      ],
      "name": "ERC20InsufficientBalance",
      "type": "error"
    },
    {
      "inputs": [
        {
          "internalType": "address",
          "name": "approver",
          "type": "address"
        }
      ],
      "name": "ERC20InvalidApprover",
      "type": "error"
    },
    {
      "inputs": [
        {
          "internalType": "address",
          "name": "receiver",
          "type": "address"
        }
      ],
      "name": "ERC20InvalidReceiver",
      "type": "error"
    },
    {
      "inputs": [
        {
          "internalType": "address",
          "name": "sender",
          "type": "address"
        }
      ],
      "name": "ERC20InvalidSender",
      "type": "error"
    },
    {
      "inputs": [
        {
          "internalType": "address",
          "name": "spender",
          "type": "address"
        }
      ],
      "name": "ERC20InvalidSpender",
      "type": "error"
    },
    {
      "inputs": [],
      "name": "InvalidInitialization",
      "type": "error"
    },
    {
      "inputs": [],
      "name": "NotInitializing",
      "type": "error"
    },
    {
      "inputs": [
        {
          "internalType": "address",
          "name": "owner",
          "type": "address"
        }
      ],
      "name": "OwnableInvalidOwner",
      "type": "error"
    },
    {
      "inputs": [
        {
          "internalType": "address",
          "name": "account",
          "type": "address"
        }
      ],
      "name": "OwnableUnauthorizedAccount",
      "type": "error"
    },
    {
      "anonymous": false,
      "inputs": [
        {
          "indexed": true,
          "internalType": "address",
          "name": "owner",
          "type": "address"
        },
        {
          "indexed": true,
          "internalType": "address",
          "name": "spender",
          "type": "address"
        },
        {
          "indexed": false,
          "internalType": "uint256",
          "name": "value",
          "type": "uint256"
        }
      ],
      "name": "Approval",
      "type": "event"
    },
    {
      "anonymous": false,
      "inputs": [
        {
          "indexed": false,
          "internalType": "uint64",
          "name": "version",
          "type": "uint64"
        }
      ],
      "name": "Initialized",
      "type": "event"
    },
    {
      "anonymous": false,
      "inputs": [
        {
          "indexed": true,
          "internalType": "address",
          "name": "previousOwner",
          "type": "address"
        },
        {
          "indexed": true,
          "internalType": "address",
          "name": "newOwner",
          "type": "address"
        }
      ],
      "name": "OwnershipTransferred",
      "type": "event"
    },
    {
      "anonymous": false,
      "inputs": [
        {
          "indexed": true,
          "internalType": "address",
          "name": "from",
          "type": "address"
        },
        {
          "indexed": true,
          "internalType": "address",
          "name": "to",
          "type": "address"
        },
        {
          "indexed": false,
          "internalType": "uint256",
          "name": "value",
          "type": "uint256"
        }
      ],
      "name": "Transfer",
      "type": "event"
    },
    {
      "inputs": [
        {
          "internalType": "address",
          "name": "owner",
          "type": "address"
        },
        {
          "internalType": "address",
          "name": "spender",
          "type": "address"
        }
      ],
      "name": "allowance",
      "outputs": [
        {
          "internalType": "uint256",
          "name": "",
          "type": "uint256"
        }
      ],
      "stateMutability": "view",
      "type": "function"
    },
    {
      "inputs": [
        {
          "internalType": "address",
          "name": "spender",
          "type": "address"
        },
        {
          "internalType": "uint256",
          "name": "value",
          "type": "uint256"
        }
      ],
      "name": "approve",
      "outputs": [
        {
          "internalType": "bool",
          "name": "",
          "type": "bool"
        }
      ],
      "stateMutability": "nonpayable",
      "type": "function"
    },
    {
      "inputs": [
        {
          "internalType": "address",
          "name": "account",
          "type": "address"
        }
      ],
      "name": "balanceOf",
      "outputs": [
        {
          "internalType": "uint256",
          "name": "",
          "type": "uint256"
        }
      ],
      "stateMutability": "view",
      "type": "function"
    },
    {
      "inputs": [
        {
          "internalType": "address",
          "name": "_account",
          "type": "address"
        },
        {
          "internalType": "uint256",
          "name": "_value",
          "type": "uint256"
        }
      ],
      "name": "burn",
      "outputs": [],
      "stateMutability": "nonpayable",
      "type": "function"
    },
    {
      "inputs": [],
      "name": "decimals",
      "outputs": [
        {
          "internalType": "uint8",
          "name": "",
          "type": "uint8"
        }
      ],
      "stateMutability": "view",
      "type": "function"
    },
    {
      "inputs": [
        {
          "internalType": "address",
          "name": "_initialOwner",
          "type": "address"
        }
      ],
      "name": "initialize",
      "outputs": [],
      "stateMutability": "nonpayable",
      "type": "function"
    },
    {
      "inputs": [
        {
          "internalType": "address",
          "name": "_account",
          "type": "address"
        },
        {
          "internalType": "uint256",
          "name": "_value",
          "type": "uint256"
        }
      ],
      "name": "mint",
      "outputs": [],
      "stateMutability": "nonpayable",
      "type": "function"
    },
    {
      "inputs": [],
      "name": "name",
      "outputs": [
        {
          "internalType": "string",
          "name": "",
          "type": "string"
        }
      ],
      "stateMutability": "view",
      "type": "function"
    },
    {
      "inputs": [],
      "name": "owner",
      "outputs": [
        {
          "internalType": "address",
          "name": "",
          "type": "address"
        }
      ],
      "stateMutability": "view",
      "type": "function"
    },
    {
      "inputs": [],
      "name": "renounceOwnership",
      "outputs": [],
      "stateMutability": "nonpayable",
      "type": "function"
    },
    {
      "inputs": [],
      "name": "symbol",
      "outputs": [
        {
          "internalType": "string",
          "name": "",
          "type": "string"
        }
      ],
      "stateMutability": "view",
      "type": "function"
    },
    {
      "inputs": [],
      "name": "totalSupply",
      "outputs": [
        {
          "internalType": "uint256",
          "name": "",
          "type": "uint256"
        }
      ],
      "stateMutability": "view",
      "type": "function"
    },
    {
      "inputs": [
        {
          "internalType": "address",
          "name": "to",
          "type": "address"
        },
        {
          "internalType": "uint256",
          "name": "value",
          "type": "uint256"
        }
      ],
      "name": "transfer",
      "outputs": [
        {
          "internalType": "bool",
          "name": "",
          "type": "bool"
        }
      ],
      "stateMutability": "nonpayable",
      "type": "function"
    },
    {
      "inputs": [
        {
          "internalType": "address",
          "name": "from",
          "type": "address"
        },
        {
          "internalType": "address",
          "name": "to",
          "type": "address"
        },
        {
          "internalType": "uint256",
          "name": "value",
          "type": "uint256"
        }
      ],
      "name": "transferFrom",
      "outputs": [
        {
          "internalType": "bool",
          "name": "",
          "type": "bool"
        }
      ],
      "stateMutability": "nonpayable",
      "type": "function"
    },
    {
      "inputs": [
        {
          "internalType": "address",
          "name": "newOwner",
          "type": "address"
        }
      ],
      "name": "transferOwnership",
      "outputs": [],
      "stateMutability": "nonpayable",
      "type": "function"
    }
  ],
  "bytecode": "0x608060405234801561001057600080fd5b5061001f61002460201b60201c565b61018e565b600061003461012860201b60201c565b90508060000160089054906101000a900460ff161561007f576040517ff92ee8a900000000000000000000000000000000000000000000000000000000815260040160405180910390fd5b67ffffffffffffffff80168160000160009054906101000a900467ffffffffffffffff1667ffffffffffffffff16146101255767ffffffffffffffff8160000160006101000a81548167ffffffffffffffff021916908367ffffffffffffffff1602179055507fc7f505b2f371ae2175ee4913f4499e1f2633a7b5936321eed1cdaeb6115181d267ffffffffffffffff60405161011c9190610173565b60405180910390a15b50565b60007ff0c57e16840df040f15088dc2f81fe391c3923bec73e23a9662efc9c229c6a00905090565b600067ffffffffffffffff82169050919050565b61016d81610150565b82525050565b60006020820190506101886000830184610164565b92915050565b611a008061019d6000396000f3fe608060405234801561001057600080fd5b50600436106100f55760003560e01c8063715018a611610097578063a9059cbb11610066578063a9059cbb14610262578063c4d66de814610292578063dd62ed3e146102ae578063f2fde38b146102de576100f5565b8063715018a6146102005780638da5cb5b1461020a57806395d89b41146102285780639dc29fac14610246576100f5565b806323b872dd116100d357806323b872dd14610166578063313ce5671461019657806340c10f19146101b457806370a08231146101d0576100f5565b806306fdde03146100fa578063095ea7b31461011857806318160ddd14610148575b600080fd5b6101026102fa565b60405161010f919061133d565b60405180910390f35b610132600480360381019061012d91906113f8565b61039b565b60405161013f9190611453565b60405180910390f35b6101506103be565b60405161015d919061147d565b60405180910390f35b610180600480360381019061017b9190611498565b6103d6565b60405161018d9190611453565b60405180910390f35b61019e610405565b6040516101ab9190611507565b60405180910390f35b6101ce60048036038101906101c991906113f8565b61040e565b005b6101ea60048036038101906101e59190611522565b610424565b6040516101f7919061147d565b60405180910390f35b61020861047b565b005b61021261048f565b60405161021f919061155e565b60405180910390f35b6102306104c7565b60405161023d919061133d565b60405180910390f35b610260600480360381019061025b91906113f8565b610568565b005b61027c600480360381019061027791906113f8565b61057e565b6040516102899190611453565b60405180910390f35b6102ac60048036038101906102a79190611522565b6105a1565b005b6102c860048036038101906102c39190611579565b6107a4565b6040516102d5919061147d565b60405180910390f35b6102f860048036038101906102f39190611522565b610839565b005b606060006103066108bf565b9050806003018054610317906115e8565b80601f0160208091040260200160405190810160405280929190818152602001828054610343906115e8565b80156103905780601f1061036557610100808354040283529160200191610390565b820191906000526020600020905b81548152906001019060200180831161037357829003601f168201915b505050505091505090565b6000806103a66108e7565b90506103b38185856108ef565b600191505092915050565b6000806103c96108bf565b9050806002015491505090565b6000806103e16108e7565b90506103ee858285610901565b6103f9858585610995565b60019150509392505050565b60006012905090565b610416610a89565b6104208282610b10565b5050565b60008061042f6108bf565b90508060000160008473ffffffffffffffffffffffffffffffffffffffff1673ffffffffffffffffffffffffffffffffffffffff16815260200190815260200160002054915050919050565b610483610a89565b61048d6000610b92565b565b60008061049a610c69565b90508060000160009054906101000a900473ffffffffffffffffffffffffffffffffffffffff1691505090565b606060006104d36108bf565b90508060040180546104e4906115e8565b80601f0160208091040260200160405190810160405280929190818152602001828054610510906115e8565b801561055d5780601f106105325761010080835404028352916020019161055d565b820191906000526020600020905b81548152906001019060200180831161054057829003601f168201915b505050505091505090565b610570610a89565b61057a8282610c91565b5050565b6000806105896108e7565b9050610596818585610995565b600191505092915050565b60006105ab610d13565b905060008160000160089054906101000a900460ff1615905060008260000160009054906101000a900467ffffffffffffffff1690506000808267ffffffffffffffff161480156105f95750825b9050600060018367ffffffffffffffff1614801561062e575060003073ffffffffffffffffffffffffffffffffffffffff163b145b90508115801561063c575080155b15610673576040517ff92ee8a900000000000000000000000000000000000000000000000000000000815260040160405180910390fd5b60018560000160006101000a81548167ffffffffffffffff021916908367ffffffffffffffff16021790555083156106c35760018560000160086101000a81548160ff0219169083151502179055505b6106cc86610d3b565b6107406040518060400160405280600781526020017f424d546f6b656e000000000000000000000000000000000000000000000000008152506040518060400160405280600481526020017f424d544e00000000000000000000000000000000000000000000000000000000815250610d4f565b831561079c5760008560000160086101000a81548160ff0219169083151502179055507fc7f505b2f371ae2175ee4913f4499e1f2633a7b5936321eed1cdaeb6115181d260016040516107939190611672565b60405180910390a15b505050505050565b6000806107af6108bf565b90508060010160008573ffffffffffffffffffffffffffffffffffffffff1673ffffffffffffffffffffffffffffffffffffffff16815260200190815260200160002060008473ffffffffffffffffffffffffffffffffffffffff1673ffffffffffffffffffffffffffffffffffffffff1681526020019081526020016000205491505092915050565b610841610a89565b600073ffffffffffffffffffffffffffffffffffffffff168173ffffffffffffffffffffffffffffffffffffffff16036108b35760006040517f1e4fbdf70000000000000000000000000000000000000000000000000000000081526004016108aa919061155e565b60405180910390fd5b6108bc81610b92565b50565b60007f52c63247e1f47db19d5ce0460030c497f067ca4cebf71ba98eeadabe20bace00905090565b600033905090565b6108fc8383836001610d65565b505050565b600061090d84846107a4565b90507fffffffffffffffffffffffffffffffffffffffffffffffffffffffffffffffff811461098f578181101561097f578281836040517ffb8f41b20000000000000000000000000000000000000000000000000000000081526004016109769392919061168d565b60405180910390fd5b61098e84848484036000610d65565b5b50505050565b600073ffffffffffffffffffffffffffffffffffffffff168373ffffffffffffffffffffffffffffffffffffffff1603610a075760006040517f96c6fd1e0000000000000000000000000000000000000000000000000000000081526004016109fe919061155e565b60405180910390fd5b600073ffffffffffffffffffffffffffffffffffffffff168273ffffffffffffffffffffffffffffffffffffffff1603610a795760006040517fec442f05000000000000000000000000000000000000000000000000000000008152600401610a70919061155e565b60405180910390fd5b610a84838383610f4b565b505050565b610a916108e7565b73ffffffffffffffffffffffffffffffffffffffff16610aaf61048f565b73ffffffffffffffffffffffffffffffffffffffff1614610b0e57610ad26108e7565b6040517f118cdaa7000000000000000000000000000000000000000000000000000000008152600401610b05919061155e565b60405180910390fd5b565b600073ffffffffffffffffffffffffffffffffffffffff168273ffffffffffffffffffffffffffffffffffffffff1603610b825760006040517fec442f05000000000000000000000000000000000000000000000000000000008152600401610b79919061155e565b60405180910390fd5b610b8e60008383610f4b565b5050565b6000610b9c610c69565b905060008160000160009054906101000a900473ffffffffffffffffffffffffffffffffffffffff169050828260000160006101000a81548173ffffffffffffffffffffffffffffffffffffffff021916908373ffffffffffffffffffffffffffffffffffffffff1602179055508273ffffffffffffffffffffffffffffffffffffffff168173ffffffffffffffffffffffffffffffffffffffff167f8be0079c531659141344cd1fd0a4f28419497f9722a3daafe3b4186f6b6457e060405160405180910390a3505050565b60007f9016d09d72d40fdae2fd8ceac6b6234c7706214fd39c1cd1e609a0528c199300905090565b600073ffffffffffffffffffffffffffffffffffffffff168273ffffffffffffffffffffffffffffffffffffffff1603610d035760006040517f96c6fd1e000000000000000000000000000000000000000000000000000000008152600401610cfa919061155e565b60405180910390fd5b610d0f82600083610f4b565b5050565b60007ff0c57e16840df040f15088dc2f81fe391c3923bec73e23a9662efc9c229c6a00905090565b610d4361118a565b610d4c816111ca565b50565b610d5761118a565b610d618282611250565b5050565b6000610d6f6108bf565b9050600073ffffffffffffffffffffffffffffffffffffffff168573ffffffffffffffffffffffffffffffffffffffff1603610de35760006040517fe602df05000000000000000000000000000000000000000000000000000000008152600401610dda919061155e565b60405180910390fd5b600073ffffffffffffffffffffffffffffffffffffffff168473ffffffffffffffffffffffffffffffffffffffff1603610e555760006040517f94280d62000000000000000000000000000000000000000000000000000000008152600401610e4c919061155e565b60405180910390fd5b828160010160008773ffffffffffffffffffffffffffffffffffffffff1673ffffffffffffffffffffffffffffffffffffffff16815260200190815260200160002060008673ffffffffffffffffffffffffffffffffffffffff1673ffffffffffffffffffffffffffffffffffffffff168152602001908152602001600020819055508115610f44578373ffffffffffffffffffffffffffffffffffffffff168573ffffffffffffffffffffffffffffffffffffffff167f8c5be1e5ebec7d5bd14f71427d1e84f3dd0314c0f7b2291e5b200ac8c7c3b92585604051610f3b919061147d565b60405180910390a35b5050505050565b6000610f556108bf565b9050600073ffffffffffffffffffffffffffffffffffffffff168473ffffffffffffffffffffffffffffffffffffffff1603610fab5781816002016000828254610f9f91906116f3565b92505081905550611084565b60008160000160008673ffffffffffffffffffffffffffffffffffffffff1673ffffffffffffffffffffffffffffffffffffffff1681526020019081526020016000205490508281101561103a578481846040517fe450d38c0000000000000000000000000000000000000000000000000000000081526004016110319392919061168d565b60405180910390fd5b8281038260000160008773ffffffffffffffffffffffffffffffffffffffff1673ffffffffffffffffffffffffffffffffffffffff16815260200190815260200160002081905550505b600073ffffffffffffffffffffffffffffffffffffffff168373ffffffffffffffffffffffffffffffffffffffff16036110cf5781816002016000828254039250508190555061111f565b818160000160008573ffffffffffffffffffffffffffffffffffffffff1673ffffffffffffffffffffffffffffffffffffffff168152602001908152602001600020600082825401925050819055505b8273ffffffffffffffffffffffffffffffffffffffff168473ffffffffffffffffffffffffffffffffffffffff167fddf252ad1be2c89b69c2b068fc378daa952ba7f163c4a11628f55a4df523b3ef8460405161117c919061147d565b60405180910390a350505050565b61119261128d565b6111c8576040517fd7e6bcf800000000000000000000000000000000000000000000000000000000815260040160405180910390fd5b565b6111d261118a565b600073ffffffffffffffffffffffffffffffffffffffff168173ffffffffffffffffffffffffffffffffffffffff16036112445760006040517f1e4fbdf700000000000000000000000000000000000000000000000000000000815260040161123b919061155e565b60405180910390fd5b61124d81610b92565b50565b61125861118a565b60006112626108bf565b90508281600301908161127591906118f8565b508181600401908161128791906118f8565b50505050565b6000611297610d13565b60000160089054906101000a900460ff16905090565b600081519050919050565b600082825260208201905092915050565b60005b838110156112e75780820151818401526020810190506112cc565b60008484015250505050565b6000601f19601f8301169050919050565b600061130f826112ad565b61131981856112b8565b93506113298185602086016112c9565b611332816112f3565b840191505092915050565b600060208201905081810360008301526113578184611304565b905092915050565b600080fd5b600073ffffffffffffffffffffffffffffffffffffffff82169050919050565b600061138f82611364565b9050919050565b61139f81611384565b81146113aa57600080fd5b50565b6000813590506113bc81611396565b92915050565b6000819050919050565b6113d5816113c2565b81146113e057600080fd5b50565b6000813590506113f2816113cc565b92915050565b6000806040838503121561140f5761140e61135f565b5b600061141d858286016113ad565b925050602061142e858286016113e3565b9150509250929050565b60008115159050919050565b61144d81611438565b82525050565b60006020820190506114686000830184611444565b92915050565b611477816113c2565b82525050565b6000602082019050611492600083018461146e565b92915050565b6000806000606084860312156114b1576114b061135f565b5b60006114bf868287016113ad565b93505060206114d0868287016113ad565b92505060406114e1868287016113e3565b9150509250925092565b600060ff82169050919050565b611501816114eb565b82525050565b600060208201905061151c60008301846114f8565b92915050565b6000602082840312156115385761153761135f565b5b6000611546848285016113ad565b91505092915050565b61155881611384565b82525050565b6000602082019050611573600083018461154f565b92915050565b600080604083850312156115905761158f61135f565b5b600061159e858286016113ad565b92505060206115af858286016113ad565b9150509250929050565b7f4e487b7100000000000000000000000000000000000000000000000000000000600052602260045260246000fd5b6000600282049050600182168061160057607f821691505b602082108103611613576116126115b9565b5b50919050565b6000819050919050565b600067ffffffffffffffff82169050919050565b6000819050919050565b600061165c61165761165284611619565b611637565b611623565b9050919050565b61166c81611641565b82525050565b60006020820190506116876000830184611663565b92915050565b60006060820190506116a2600083018661154f565b6116af602083018561146e565b6116bc604083018461146e565b949350505050565b7f4e487b7100000000000000000000000000000000000000000000000000000000600052601160045260246000fd5b60006116fe826113c2565b9150611709836113c2565b9250828201905080821115611721576117206116c4565b5b92915050565b7f4e487b7100000000000000000000000000000000000000000000000000000000600052604160045260246000fd5b60008190508160005260206000209050919050565b60006020601f8301049050919050565b600082821b905092915050565b6000600883026117b87fffffffffffffffffffffffffffffffffffffffffffffffffffffffffffffffff8261177b565b6117c2868361177b565b95508019841693508086168417925050509392505050565b60006117f56117f06117eb846113c2565b611637565b6113c2565b9050919050565b6000819050919050565b61180f836117da565b61182361181b826117fc565b848454611788565b825550505050565b600090565b61183861182b565b611843818484611806565b505050565b5b818110156118675761185c600082611830565b600181019050611849565b5050565b601f8211156118ac5761187d81611756565b6118868461176b565b81016020851015611895578190505b6118a96118a18561176b565b830182611848565b50505b505050565b600082821c905092915050565b60006118cf600019846008026118b1565b1980831691505092915050565b60006118e883836118be565b9150826002028217905092915050565b611901826112ad565b67ffffffffffffffff81111561191a57611919611727565b5b61192482546115e8565b61192f82828561186b565b600060209050601f8311600181146119625760008415611950578287015190505b61195a85826118dc565b8655506119c2565b601f19841661197086611756565b60005b8281101561199857848901518255600182019150602085019450602081019050611973565b868310156119b557848901516119b1601f8916826118be565b8355505b6001600288020188555050505b50505050505056fea264697066735822122097a4039b6f68c80b1ece9ccb92c6bca499113489a56e4e12609434f7ce02ddcd64736f6c634300081c0033",
  "linkReferences": {},
  "deployedLinkReferences": {}
}